{"abi":[{"type":"constructor","inputs":[{"name":"governor_","type":"address","internalType":"contract IAIGovernor"},{"name":"treasury_","type":"address","internalType":"address"},{"name":"openFee_","type":"uint256","internalType":"uint256"},{"name":"proposalFee_","type":"uint256","internalType":"uint256"}],"stateMutability":"nonpayable"},{"type":"function","name":"MIN_WINDOW","inputs":[],"outputs":[{"name":"","type":"uint64","internalType":"uint64"}],"stateMutability":"view"},{"type":"function","name":"PROPOSAL_DOMAIN","inputs":[],"outputs":[{"name":"","type":"bytes32","internalType":"bytes32"}],"stateMutability":"view"},{"type":"function","name":"committee","inputs":[{"name":"roundId","type":"uint256","internalType":"uint256"}],"outputs":[{"name":"openBlock","type":"uint64","internalType":"uint64"},{"name":"population","type":"uint256","internalType":"uint256"},{"name":"seed","type":"bytes32","internalType":"bytes32"}],"stateMutability":"view"},{"type":"function","name":"getProposals","inputs":[{"name":"roundId","type":"uint256","internalType":"uint256"}],"outputs":[{"name":"","type":"tuple[]","internalType":"struct AIParams.Proposal[]","components":[{"name":"operator","type":"address","internalType":"address"},{"name":"value","type":"uint256","internalType":"uint256"},{"name":"confidenceBucket","type":"uint16","internalType":"uint16"},{"name":"evidenceHash","type":"bytes32","internalType":"bytes32"},{"name":"submittedAt","type":"uint64","internalType":"uint64"}]}],"stateMutability":"view"},{"type":"function","name":"getRound","inputs":[{"name":"roundId","type":"uint256","internalType":"uint256"}],"outputs":[{"name":"","type":"tuple","internalType":"struct AIParams.Round","components":[{"name":"modelSpecHash","type":"bytes32","internalType":"bytes32"},{"name":"promptHash","type":"bytes32","internalType":"bytes32"},{"name":"knobKey","type":"string","internalType":"string"},{"name":"lo","type":"uint256","internalType":"uint256"},{"name":"hi","type":"uint256","internalType":"uint256"},{"name":"n","type":"uint8","internalType":"uint8"},{"name":"threshold","type":"uint8","internalType":"uint8"},{"name":"openedAt","type":"uint64","internalType":"uint64"},{"name":"deadline","type":"uint64","internalType":"uint64"},{"name":"opener","type":"address","internalType":"address"},{"name":"status","type":"uint8","internalType":"enum AIParams.Status"},{"name":"submissionCount","type":"uint8","internalType":"uint8"},{"name":"canonicalValue","type":"uint256","internalType":"uint256"}]}],"stateMutability":"view"},{"type":"function","name":"governor","inputs":[],"outputs":[{"name":"","type":"address","internalType":"contract IAIGovernor"}],"stateMutability":"view"},{"type":"function","name":"isSampled","inputs":[{"name":"roundId","type":"uint256","internalType":"uint256"},{"name":"who","type":"address","internalType":"address"}],"outputs":[{"name":"","type":"bool","internalType":"bool"}],"stateMutability":"view"},{"type":"function","name":"open","inputs":[{"name":"modelSpecHash","type":"bytes32","internalType":"bytes32"},{"name":"promptHash","type":"bytes32","internalType":"bytes32"},{"name":"knobKey","type":"string","internalType":"string"},{"name":"lo","type":"uint256","internalType":"uint256"},{"name":"hi","type":"uint256","internalType":"uint256"},{"name":"n","type":"uint8","internalType":"uint8"},{"name":"threshold","type":"uint8","internalType":"uint8"},{"name":"window","type":"uint64","internalType":"uint64"}],"outputs":[{"name":"roundId","type":"uint256","internalType":"uint256"}],"stateMutability":"payable"},{"type":"function","name":"openFee","inputs":[],"outputs":[{"name":"","type":"uint256","internalType":"uint256"}],"stateMutability":"view"},{"type":"function","name":"proposalDigest","inputs":[{"name":"roundId","type":"uint256","internalType":"uint256"},{"name":"operator","type":"address","internalType":"address"},{"name":"modelSpecHash","type":"bytes32","internalType":"bytes32"},{"name":"value","type":"uint256","internalType":"uint256"},{"name":"confidenceBucket","type":"uint16","internalType":"uint16"},{"name":"evidenceHash","type":"bytes32","internalType":"bytes32"}],"outputs":[{"name":"","type":"bytes32","internalType":"bytes32"}],"stateMutability":"view"},{"type":"function","name":"proposalFee","inputs":[],"outputs":[{"name":"","type":"uint256","internalType":"uint256"}],"stateMutability":"view"},{"type":"function","name":"roundCount","inputs":[],"outputs":[{"name":"","type":"uint256","internalType":"uint256"}],"stateMutability":"view"},{"type":"function","name":"settle","inputs":[{"name":"roundId","type":"uint256","internalType":"uint256"}],"outputs":[{"name":"value","type":"uint256","internalType":"uint256"},{"name":"decided","type":"bool","internalType":"bool"}],"stateMutability":"nonpayable"},{"type":"function","name":"submitProposal","inputs":[{"name":"roundId","type":"uint256","internalType":"uint256"},{"name":"value","type":"uint256","internalType":"uint256"},{"name":"confidenceBucket","type":"uint16","internalType":"uint16"},{"name":"evidenceHash","type":"bytes32","internalType":"bytes32"},{"name":"signature","type":"bytes","internalType":"bytes"}],"outputs":[],"stateMutability":"payable"},{"type":"function","name":"treasury","inputs":[],"outputs":[{"name":"","type":"address","internalType":"address"}],"stateMutability":"view"},{"type":"function","name":"treasuryFees","inputs":[],"outputs":[{"name":"","type":"uint256","internalType":"uint256"}],"stateMutability":"view"},{"type":"function","name":"valueOf","inputs":[{"name":"modelSpecHash","type":"bytes32","internalType":"bytes32"},{"name":"knobKey","type":"string","internalType":"string"}],"outputs":[{"name":"value","type":"uint256","internalType":"uint256"},{"name":"decided","type":"bool","internalType":"bool"}],"stateMutability":"view"},{"type":"function","name":"withdrawFees","inputs":[],"outputs":[],"stateMutability":"nonpayable"},{"type":"event","name":"FeesWithdrawn","inputs":[{"name":"treasury","type":"address","indexed":true,"internalType":"address"},{"name":"amount","type":"uint256","indexed":false,"internalType":"uint256"}],"anonymous":false},{"type":"event","name":"ParameterDecided","inputs":[{"name":"roundId","type":"uint256","indexed":true,"internalType":"uint256"},{"name":"modelSpecHash","type":"bytes32","indexed":true,"internalType":"bytes32"},{"name":"knobKey","type":"string","indexed":false,"internalType":"string"},{"name":"value","type":"uint256","indexed":false,"internalType":"uint256"},{"name":"proposals","type":"uint8","indexed":false,"internalType":"uint8"}],"anonymous":false},{"type":"event","name":"ProposalSubmitted","inputs":[{"name":"roundId","type":"uint256","indexed":true,"internalType":"uint256"},{"name":"operator","type":"address","indexed":true,"internalType":"address"},{"name":"value","type":"uint256","indexed":false,"internalType":"uint256"},{"name":"confidenceBucket","type":"uint16","indexed":false,"internalType":"uint16"},{"name":"evidenceHash","type":"bytes32","indexed":false,"internalType":"bytes32"}],"anonymous":false},{"type":"event","name":"RoundFailed","inputs":[{"name":"roundId","type":"uint256","indexed":true,"internalType":"uint256"},{"name":"submissionCount","type":"uint8","indexed":false,"internalType":"uint8"},{"name":"threshold","type":"uint8","indexed":false,"internalType":"uint8"}],"anonymous":false},{"type":"event","name":"RoundOpened","inputs":[{"name":"roundId","type":"uint256","indexed":true,"internalType":"uint256"},{"name":"modelSpecHash","type":"bytes32","indexed":true,"internalType":"bytes32"},{"name":"knobKey","type":"string","indexed":false,"internalType":"string"},{"name":"lo","type":"uint256","indexed":false,"internalType":"uint256"},{"name":"hi","type":"uint256","indexed":false,"internalType":"uint256"},{"name":"n","type":"uint8","indexed":false,"internalType":"uint8"},{"name":"threshold","type":"uint8","indexed":false,"internalType":"uint8"},{"name":"opener","type":"address","indexed":false,"internalType":"address"}],"anonymous":false},{"type":"error","name":"AlreadyProposed","inputs":[{"name":"roundId","type":"uint256","internalType":"uint256"},{"name":"operator","type":"address","internalType":"address"}]},{"type":"error","name":"BadCommittee","inputs":[{"name":"n","type":"uint8","internalType":"uint8"},{"name":"threshold","type":"uint8","internalType":"uint8"}]},{"type":"error","name":"BadRange","inputs":[{"name":"lo","type":"uint256","internalType":"uint256"},{"name":"hi","type":"uint256","internalType":"uint256"}]},{"type":"error","name":"CommitteeFull","inputs":[{"name":"roundId","type":"uint256","internalType":"uint256"}]},{"type":"error","name":"ECDSAInvalidSignature","inputs":[]},{"type":"error","name":"ECDSAInvalidSignatureLength","inputs":[{"name":"length","type":"uint256","internalType":"uint256"}]},{"type":"error","name":"ECDSAInvalidSignatureS","inputs":[{"name":"s","type":"bytes32","internalType":"bytes32"}]},{"type":"error","name":"NotEligibleOperator","inputs":[{"name":"who","type":"address","internalType":"address"}]},{"type":"error","name":"NotRegisteredBeforeOpen","inputs":[{"name":"who","type":"address","internalType":"address"}]},{"type":"error","name":"NotSampled","inputs":[{"name":"who","type":"address","internalType":"address"}]},{"type":"error","name":"RoundNotOpen","inputs":[{"name":"roundId","type":"uint256","internalType":"uint256"}]},{"type":"error","name":"SeedNotReady","inputs":[{"name":"roundId","type":"uint256","internalType":"uint256"}]},{"type":"error","name":"SignerMismatch","inputs":[{"name":"recovered","type":"address","internalType":"address"},{"name":"sender","type":"address","internalType":"address"}]},{"type":"error","name":"UnknownRound","inputs":[{"name":"roundId","type":"uint256","internalType":"uint256"}]},{"type":"error","name":"ValueOutOfRange","inputs":[{"name":"value","type":"uint256","internalType":"uint256"},{"name":"lo","type":"uint256","internalType":"uint256"},{"name":"hi","type":"uint256","internalType":"uint256"}]},{"type":"error","name":"VotingOpen","inputs":[{"name":"roundId","type":"uint256","internalType":"uint256"}]},{"type":"error","name":"WindowTooShort","inputs":[{"name":"window","type":"uint64","internalType":"uint64"}]},{"type":"error","name":"WrongFee","inputs":[{"name":"sent","type":"uint256","internalType":"uint256"},{"name":"want","type":"uint256","internalType":"uint256"}]}],"bytecode":{"object":"0x6101003461013657601f611e9438819003918201601f19168301916001600160401b0383118484101761013a57808492608094604052833981010312610136578051906001600160a01b03821682036101365760208101516001600160a01b0381169283820361013657606060408401519301519315801590610125575b156100eb5760805260a05260c05260e052604051611d45908161014f82396080518181816101e001528181610e2601528181610f2c015261193c015260a051818181610ad00152610b39015260c05181818161016f0152610766015260e05181818161072c0152610ef00152f35b60405162461bcd60e51b815260206004820152601260248201527166656573206e65656420747265617375727960701b6044820152606490fd5b508215801561007d5750831561007d565b5f80fd5b634e487b7160e01b5f52604160045260245ffdfe60806040526004361015610011575f80fd5b5f3560e01c806308d9a93a14610e555780630c340a2414610e11578063127f0b3f14610df45780631ef4b61014610d715780632c72fdfc14610c3e57806343b7200914610c04578063476343ee14610b1b57806352b65c4b14610aff57806361d027b314610abb5780638df8280014610a8d5780638f1327c0146108495780639a67430f1461082d578063afe7fcf4146107d3578063b14d317114610789578063b78450731461074f578063c27cabb514610715578063dc97971d146106e55763e9e429f4146100df575f80fd5b610100366003190112610625576044356001600160401b0381116106255761010b90369060040161144d565b60a4359060ff821682036106255760c43560ff811681036106255760e435906001600160401b03821680920361062557608435606435116106cb5760ff84161580156106c0575b80156106b1575b8015610694575b61067857610e108210610665577f000000000000000000000000000000000000000000000000000000000000000080340361064f578061063c575b506001545f81815260066020908152604091829020805467ffffffffffffffff1916436001600160401b03161790559051630f8de62b60e31b815291959190816004817f00000000000000000000000000000000000000000000000000000000000000006001600160a01b03165afa908115610631575f916105fb575b50855f52600760205260405f20556001600160401b0342169283016001600160401b0381116105e7576040519361024e856114f9565b60043585526001600160401b036020860192602435845261027036898c611551565b92604088019384526064356060890152608435608089015260ff861660a089015260ff871660c089015260e0880152166101008601523361012086015260016101408601525f6101608601525f610180860152600154600160401b8110156105c0578060016102e292016001556114ae565b9290926105d4578551835551600183015551938451946001600160401b0386116105c05761031360028401546115f5565b601f8111610578575b509160209893918895938a90601f89116001146104dc5761018060ff9695938a7f5443a6ccc751cd1f8be290fb431ff211353abc669d38be5c2538c33dcf7c76a59a9b8997956007955f926104d1575b50508160011b915f199060031b1c19161760028501555b6060810151600385015560808101516004850155600584018660a083015116815461ff0060c085015160081b1669ffffffffffffffff000060e086015160101b16916001600160401b0360501b61010087015160501b16936001600160401b0360501b199169ffffffffffffffffffff1916171617171790556104736006850160018060a01b0360018060a01b0361012085015116166001600160601b0360a01b8254161781556101408301516104398161147a565b6104428161147a565b815461016085015160ff60a81b908b1660a81b16918a1660a090811b908b901b199091161760ff60a81b1916179055565b0151910155876040519560c087528160c088015260e08701375f60e089870101526064358a86015260843560408601521660608401521660808201523360a082015260e08160043595601f80199101168101030190a3604051908152f35b015190505f8061036c565b9790600284015f52805f20985f5b601f198416811061055e575060ff9695936001847f5443a6ccc751cd1f8be290fb431ff211353abc669d38be5c2538c33dcf7c76a59b9c600795610180958c9a98601f19811610610546575b505050811b016002850155610383565b01515f1960f88460031b161c191690555f8080610536565b828201518b556001909a01998c9950918d01918d016104ea565b600284015f5260205f20601f880160051c810191602089106105b6575b601f0160051c01905b8181106105ab575061031c565b5f815560010161059e565b9091508190610595565b634e487b7160e01b5f52604160045260245ffd5b634e487b7160e01b5f525f60045260245ffd5b634e487b7160e01b5f52601160045260245ffd5b90506020813d602011610629575b8161061660209383611515565b8101031261062557515f610218565b5f80fd5b3d9150610609565b6040513d5f823e3d90fd5b610647905f546115a6565b5f555f61019b565b6323b18f5f60e01b5f523460045260245260445ffd5b506316a335ed60e31b5f5260045260245ffd5b60ff908185632d345d0f60e11b5f52166004521660245260445ffd5b5060ff6106a6607f8660011c166115cc565b1660ff821610610160565b5060ff841660ff821611610159565b5060ff811615610152565b623224ab60ea1b5f5260643560045260843560245260445ffd5b3461062557604036600319011261062557602061070b610703611498565b6004356118ff565b6040519015158152f35b34610625575f3660031901126106255760206040517f00000000000000000000000000000000000000000000000000000000000000008152f35b34610625575f3660031901126106255760206040517f00000000000000000000000000000000000000000000000000000000000000008152f35b346106255760c0366003190112610625576107a2611498565b60843561ffff81168103610625576020916107cb9160a435916064359060443590600435611872565b604051908152f35b34610625576020366003190112610625576060600435805f5260066020526001600160401b0360405f20541690805f52600760205260405f2054905f52600860205260405f20549060405192835260208301526040820152f35b34610625575f3660031901126106255760205f54604051908152f35b34610625576020366003190112610625576004355f61018060405161086d816114f9565b828152826020820152606060408201528260608201528260808201528260a08201528260c08201528260e0820152826101008201528261012082015282610140820152826101608201520152600154811015610a7b576108cc906114ae565b506040516108d9816114f9565b815481526001820154906020810191825260405192838060028301906108fe9161162d565b036109099085611515565b60408201938452600381015490606083019182526004810154906080840191825260058101549160a085019260ff8116845260c086018160081c60ff16815260e08701908260101c6001600160401b0316825261010088019260501c6001600160401b03168352600685015495610120890194600160a01b60019003881686528760a01c60ff16966101408b01976109a08161147a565b88526101608b019860a81c60ff16895260070154986101808b01998a526040519c8d9c8d809d602082525190602001525160408d01525160608c016101a0905280519b8c91826101c0830152602001906101e0015e5f6101e08d8d0101525160808c01525160a08b01525160ff90811660c08b015290511660e0890152516001600160401b03908116610100890152905116610120870152516001600160a01b031661014086015251610a528161147a565b6101608501525160ff16610180840152516101a0830152601f1990601f01168101036101e00190f35b63095ea0c760e31b5f5260045260245ffd5b3461062557602036600319011261062557610aa96004356116ae565b60408051928352901515602083015290f35b34610625575f366003190112610625576040517f00000000000000000000000000000000000000000000000000000000000000006001600160a01b03168152602090f35b34610625575f366003190112610625576020604051610e108152f35b34610625575f366003190112610625575f545f805580610b3757005b7f00000000000000000000000000000000000000000000000000000000000000006001600160a01b0316905f80808084865af13d15610bff573d610b7a81611536565b90610b886040519283611515565b81525f60203d92013e5b15610bc45760207fc0819c13be868895eb93e40eaceb96de976442fa1d404e5c55f14bb65a8c489a91604051908152a2005b60405162461bcd60e51b8152602060048201526013602482015272199959481d1c985b9cd9995c8819985a5b1959606a1b6044820152606490fd5b610b92565b34610625575f3660031901126106255760206040517f0b098803bc9204786289eff66013ed9a6552c6f233881844f3b7d1fafecb2dd28152f35b34610625576020366003190112610625576004355f52600260205260405f20805490610c69826115de565b91610c776040519384611515565b8083526020830180925f5260205f205f915b838310610d12578486604051918291602083019060208452518091526040830191905f5b818110610cbb575050500390f35b91935091602060a06001926001600160401b03608088518680861b038151168452858101518685015261ffff6040820151166040850152606081015160608501520151166080820152019401910191849392610cad565b60056020600192604051610d25816114de565b848060a01b038654168152848601548382015261ffff6002870154166040820152600386015460608201526001600160401b036004870154166080820152815201920192019190610c89565b34610625576040366003190112610625576004356024356001600160401b03811161062557610da7610dae91369060040161144d565b3691611551565b80516020918201205f8381526004835260408082208383528452808220549482526005845280822092825291835281902054815193845260ff1615159183019190915290f35b34610625575f366003190112610625576020600154604051908152f35b34610625575f366003190112610625576040517f00000000000000000000000000000000000000000000000000000000000000006001600160a01b03168152602090f35b60a03660031901126106255760243560043560443561ffff811680820361062557606435916084356001600160401b03811161062557610e9990369060040161144d565b9190610ea4866114ae565b506006810193845492600160ff8560a01c16610ebf8161147a565b0361143a57600583019384546001600160401b038160501c1642116114275760ff8091169160a81c161015611414577f0000000000000000000000000000000000000000000000000000000000000000948534036113fd576040516336b87bd760e11b81523360048201527f00000000000000000000000000000000000000000000000000000000000000006001600160a01b03169490602081602481895afa908115610631575f916113c2575b5080611303575b156112f0575f8b815260036020908152604080832033845290915290205460ff166112d9578060038d92015480831080156112cc575b6112ae575092610fcb8b610fe29694610fd3948f610fd99854903390611872565b923691611551565b90611bd7565b90929192611c11565b6001600160a01b03163381036112985750865f526006602052602460206001600160401b0360405f205416926040519283809263b0b7619560e01b82523360048301525afa8015610631576001600160401b03915f91611269575b501681811591821561125f575b505061124c57865f52600860205260405f205490811561120e575b5061108491875f52600760205260ff60405f20549154169133906119f5565b156111fb57806111e8575b505f8481526003602090815260408083203384528252808320805460ff19166001179055868352600290915290819020905191906110cc836114de565b338352602083018781526040840190858252606085019487865260808101936001600160401b03421685528054600160401b8110156105c057611114916001820181556115b3565b9490946105d4576111b0966001600160401b0394600494869460018060a01b039060018060a01b03905116166001600160601b0360a01b89541617885551600188015561ffff6002880191511661ffff198254161790555160038601555116920191166001600160401b031982541617905561119660ff825460a81c166115cc565b815460ff60a81b191660a89190911b60ff60a81b16179055565b604051938452602084015260408301527f8b07da000cf483d253957ac428b5a4ecdd5da497abc0b3c073fb258ccbadc9c560603393a3005b6111f3905f546115a6565b5f558561108f565b6317ddcee960e31b5f523360045260245ffd5b8091504311156112395740908115611239579061108491875f5260086020528160405f205591611065565b8663018ad22360e01b5f5260045260245ffd5b6323195ef560e01b5f523360045260245ffd5b119050818a61104a565b61128b915060203d602011611291575b6112838183611515565b810190611587565b8a61103d565b503d611279565b6377f0734360e11b5f526004523360245260445ffd5b90600401549163347f1e9360e21b5f5260045260245260445260645ffd5b5060048201548311610faa565b8a63ea3745c960e01b5f526004523360245260445ffd5b63df93778160e01b5f523360045260245ffd5b506040516301cb4adb60e61b8152336004820152602081602481895afa908115610631575f91611390575b5060405163831518b760e01b8152906020826004818a5afa918215610631575f9261135c575b501015610f74565b9091506020813d602011611388575b8161137860209383611515565b810103126106255751908e611354565b3d915061136b565b90506020813d6020116113ba575b816113ab60209383611515565b8101031261062557518d61132e565b3d915061139e565b90506020813d6020116113f5575b816113dd60209383611515565b8101031261062557518015158103610625578d610f6d565b3d91506113d0565b856323b18f5f60e01b5f523460045260245260445ffd5b8863344e699760e21b5f5260045260245ffd5b8a63549fc36b60e11b5f5260045260245ffd5b8863549fc36b60e11b5f5260045260245ffd5b9181601f84011215610625578235916001600160401b038311610625576020838186019501011161062557565b6004111561148457565b634e487b7160e01b5f52602160045260245ffd5b602435906001600160a01b038216820361062557565b6001548110156114ca5760015f5260205f209060031b01905f90565b634e487b7160e01b5f52603260045260245ffd5b60a081019081106001600160401b038211176105c057604052565b6101a081019081106001600160401b038211176105c057604052565b90601f801991011681019081106001600160401b038211176105c057604052565b6001600160401b0381116105c057601f01601f191660200190565b92919261155d82611536565b9161156b6040519384611515565b829481845281830111610625578281602093845f960137010152565b9081602091031261062557516001600160401b03811681036106255790565b919082018092116105e757565b80548210156114ca575f52600560205f20910201905f90565b60ff60019116019060ff82116105e757565b6001600160401b0381116105c05760051b60200190565b90600182811c92168015611623575b602083101461160f57565b634e487b7160e01b5f52602260045260245ffd5b91607f1691611604565b5f929181549161163c836115f5565b8083529260018116908115611691575060011461165857505050565b5f9081526020812093945091925b838310611677575060209250010190565b600181602092949394548385870101520191019190611666565b915050602093945060ff929192191683830152151560051b010190565b6116b7816114ae565b509060068201908154600160ff8260a01c166116d28161147a565b0361185f5760058401546001600160401b038160501c164211158061184d575b61183a5760ff9060081c16908160ff8260a81c16106117e65750507f31a8f2f08081ce36626ee9d72f48959efa4d49345af99442faa4e473a05f139b6117d161173a83611a9c565b60078601819055845460ff60a01b1916600160a11b1785556040519095600281019160ff91906117758161176e818761162d565b0382611515565b6020815191012081545f52600460205260405f20815f526020528860405f205581545f52600560205260405f20905f5260205260405f206001831982541617905554955460a81c1660405192839260608452606084019061162d565b9087602084015260408301520390a390600190565b60ff60a01b1916600360a01b17928390556040805160a89490941c60ff16845260208401919091529092507f1c3fa889c748b1d21acab492d589db4cf546eb791e1057051153728f4ed4611e91a25f905f90565b82631bb9257b60e01b5f5260045260245ffd5b5060ff811660ff8360a81c16106116f2565b5063549fc36b60e11b5f5260045260245ffd5b94919390926040519460208601967f0b098803bc9204786289eff66013ed9a6552c6f233881844f3b7d1fafecb2dd288524660408801523060601b60608801526074870152609486015260b485015261ffff60f01b9060f01b1660d484015260d68301526001600160601b03199060601b1660f682015260ea81526118f961010a82611515565b51902090565b805f52600860205260405f20549081156119b05760405163b0b7619560e01b81526001600160a01b038481166004830152602090829060249082907f0000000000000000000000000000000000000000000000000000000000000000165afa8015610631576001600160401b03915f916119d6575b501680159081156119b7575b506119b0576119ad92815f52600760205260ff60056119a360405f2054946114ae565b50015416926119f5565b90565b5050505f90565b9050815f5260066020526001600160401b0360405f205416105f611980565b6119ef915060203d602011611291576112838183611515565b5f611974565b82159291838015611a80575b611a775782851015611a6d5760405190602082019283526001600160601b03199060601b16604082015260348152611a3a605482611515565b51902091611a59575f19048281029281159184041417156105e7571090565b634e487b7160e01b5f52601260045260245ffd5b5050505050600190565b50505050505f90565b508415611a01565b80518210156114ca5760209160051b010190565b5f52600260205260405f208054611ab2816115de565b91611ac06040519384611515565b818352601f19611acf836115de565b013660208501375f5b828110611bb557505060015b818110611b3c5750600180821614611b2a5760011c905f1982018281116105e757611b2492611b16611b1d9284611a88565b5192611a88565b51906115a6565b60011c90565b90611b389160011c90611a88565b5190565b90611b478284611a88565b5193825b80151580611b97575b15611b80575f198101908082116105e757611b7a611b728388611a88565b519187611a88565b52611b4b565b94611b9060019394929686611a88565b5201611ae4565b505f1981018181116105e757611bae879187611a88565b5111611b54565b806001611bc38193856115b3565b500154611bd08287611a88565b5201611ad8565b8151919060418303611c0757611c009250602082015190606060408401519301515f1a90611c8d565b9192909190565b50505f9160029190565b611c1a8161147a565b80611c23575050565b611c2c8161147a565b60018103611c435763f645eedf60e01b5f5260045ffd5b611c4c8161147a565b60028103611c67575063fce698f760e01b5f5260045260245ffd5b600390611c738161147a565b14611c7b5750565b6335e2f38360e21b5f5260045260245ffd5b91907f7fffffffffffffffffffffffffffffff5d576e7357a4501ddfe92f46681b20a08411611d04579160209360809260ff5f9560405194855216868401526040830152606082015282805260015afa15610631575f516001600160a01b03811615611cfa57905f905f90565b505f906001905f90565b5050505f916003919056fea2646970667358221220e4487bab52720c09877773c637ab695bcdf9f01259bef17da9f35bc2b3bf16af64736f6c634300081f0033","linkReferences":{}},"methodIdentifiers":{"MIN_WINDOW()":"52b65c4b","PROPOSAL_DOMAIN()":"43b72009","committee(uint256)":"afe7fcf4","getProposals(uint256)":"2c72fdfc","getRound(uint256)":"8f1327c0","governor()":"0c340a24","isSampled(uint256,address)":"dc97971d","open(bytes32,bytes32,string,uint256,uint256,uint8,uint8,uint64)":"e9e429f4","openFee()":"b7845073","proposalDigest(uint256,address,bytes32,uint256,uint16,bytes32)":"b14d3171","proposalFee()":"c27cabb5","roundCount()":"127f0b3f","settle(uint256)":"8df82800","submitProposal(uint256,uint256,uint16,bytes32,bytes)":"08d9a93a","treasury()":"61d027b3","treasuryFees()":"9a67430f","valueOf(bytes32,string)":"1ef4b610","withdrawFees()":"476343ee"},"id":12}