{"abi":[{"type":"constructor","inputs":[{"name":"admin_","type":"address","internalType":"address"}],"stateMutability":"nonpayable"},{"type":"function","name":"admin","inputs":[],"outputs":[{"name":"","type":"address","internalType":"address"}],"stateMutability":"view"},{"type":"function","name":"computeReceiptId","inputs":[{"name":"modelId","type":"bytes32","internalType":"bytes32"},{"name":"promptHash","type":"bytes32","internalType":"bytes32"},{"name":"outputHash","type":"bytes32","internalType":"bytes32"},{"name":"paymentHash","type":"bytes32","internalType":"bytes32"},{"name":"payer","type":"address","internalType":"address"},{"name":"operator","type":"address","internalType":"address"}],"outputs":[{"name":"","type":"bytes32","internalType":"bytes32"}],"stateMutability":"pure"},{"type":"function","name":"exists","inputs":[{"name":"receiptId","type":"bytes32","internalType":"bytes32"}],"outputs":[{"name":"","type":"bool","internalType":"bool"}],"stateMutability":"view"},{"type":"function","name":"getReceipt","inputs":[{"name":"receiptId","type":"bytes32","internalType":"bytes32"}],"outputs":[{"name":"","type":"tuple","internalType":"struct IAIThoughtRegistry.ThoughtReceipt","components":[{"name":"modelId","type":"bytes32","internalType":"bytes32"},{"name":"promptHash","type":"bytes32","internalType":"bytes32"},{"name":"outputHash","type":"bytes32","internalType":"bytes32"},{"name":"paymentHash","type":"bytes32","internalType":"bytes32"},{"name":"quorumProof","type":"bytes32","internalType":"bytes32"},{"name":"payer","type":"address","internalType":"address"},{"name":"operator","type":"address","internalType":"address"},{"name":"cost","type":"uint96","internalType":"uint96"},{"name":"registeredAt","type":"uint64","internalType":"uint64"},{"name":"blockNumber","type":"uint64","internalType":"uint64"}]}],"stateMutability":"view"},{"type":"function","name":"isRecorder","inputs":[{"name":"","type":"address","internalType":"address"}],"outputs":[{"name":"","type":"bool","internalType":"bool"}],"stateMutability":"view"},{"type":"function","name":"receiptAt","inputs":[{"name":"index","type":"uint256","internalType":"uint256"}],"outputs":[{"name":"","type":"bytes32","internalType":"bytes32"}],"stateMutability":"view"},{"type":"function","name":"receiptCount","inputs":[],"outputs":[{"name":"","type":"uint256","internalType":"uint256"}],"stateMutability":"view"},{"type":"function","name":"register","inputs":[{"name":"modelId","type":"bytes32","internalType":"bytes32"},{"name":"promptHash","type":"bytes32","internalType":"bytes32"},{"name":"outputHash","type":"bytes32","internalType":"bytes32"},{"name":"paymentHash","type":"bytes32","internalType":"bytes32"},{"name":"quorumProof","type":"bytes32","internalType":"bytes32"},{"name":"payer","type":"address","internalType":"address"},{"name":"operator","type":"address","internalType":"address"},{"name":"cost","type":"uint96","internalType":"uint96"}],"outputs":[{"name":"receiptId","type":"bytes32","internalType":"bytes32"}],"stateMutability":"nonpayable"},{"type":"function","name":"setRecorder","inputs":[{"name":"recorder","type":"address","internalType":"address"},{"name":"allowed","type":"bool","internalType":"bool"}],"outputs":[],"stateMutability":"nonpayable"},{"type":"function","name":"transferAdmin","inputs":[{"name":"admin_","type":"address","internalType":"address"}],"outputs":[],"stateMutability":"nonpayable"},{"type":"event","name":"AdminTransferred","inputs":[{"name":"from","type":"address","indexed":true,"internalType":"address"},{"name":"to","type":"address","indexed":true,"internalType":"address"}],"anonymous":false},{"type":"event","name":"RecorderSet","inputs":[{"name":"recorder","type":"address","indexed":true,"internalType":"address"},{"name":"allowed","type":"bool","indexed":false,"internalType":"bool"}],"anonymous":false},{"type":"event","name":"ThoughtRegistered","inputs":[{"name":"receiptId","type":"bytes32","indexed":true,"internalType":"bytes32"},{"name":"modelId","type":"bytes32","indexed":true,"internalType":"bytes32"},{"name":"payer","type":"address","indexed":true,"internalType":"address"},{"name":"operator","type":"address","indexed":false,"internalType":"address"},{"name":"promptHash","type":"bytes32","indexed":false,"internalType":"bytes32"},{"name":"outputHash","type":"bytes32","indexed":false,"internalType":"bytes32"},{"name":"paymentHash","type":"bytes32","indexed":false,"internalType":"bytes32"},{"name":"quorumProof","type":"bytes32","indexed":false,"internalType":"bytes32"},{"name":"cost","type":"uint96","indexed":false,"internalType":"uint96"}],"anonymous":false},{"type":"error","name":"NotAdmin","inputs":[]},{"type":"error","name":"NotRecorder","inputs":[{"name":"caller","type":"address","internalType":"address"}]},{"type":"error","name":"ReceiptAlreadyExists","inputs":[{"name":"receiptId","type":"bytes32","internalType":"bytes32"}]},{"type":"error","name":"UnknownReceipt","inputs":[{"name":"receiptId","type":"bytes32","internalType":"bytes32"}]},{"type":"error","name":"ZeroAddress","inputs":[]},{"type":"error","name":"ZeroModelId","inputs":[]},{"type":"error","name":"ZeroPayer","inputs":[]},{"type":"error","name":"ZeroPaymentHash","inputs":[]}],"bytecode":{"object":"0x608034608557601f6108e938819003918201601f19168301916001600160401b03831184841017608957808492602094604052833981010312608557516001600160a01b03811680820360855760815750335b600380546001600160a01b0319166001600160a01b039290921691909117905560405161084b908161009e8239f35b6052565b5f80fd5b634e487b7160e01b5f52604160045260245ffdfe60806040526004361015610011575f80fd5b5f3560e01c80630aa6e1631461046157806338a699a414610432578063646ce049146103f55780636b39349f1461036757806375829def146102d45780637f038f3c146102b75780638f18191b1461028a578063cf0933f21461023e578063f851a440146102165763fcecbb6114610087575f80fd5b34610212576020366003190112610212576004355f6101206040516100ab8161076f565b8281528260208201528260408201528260608201528260808201528260a08201528260c08201528260e0820152826101008201520152805f52600160205260ff60405f20541615610200575f525f60205261014060405f2067ffffffffffffffff6101208160405161011c8161076f565b6001600160601b03855495868352600181015490602084019182526002810154604085019081526003820154606086019081526004830154906080870191825260018060a01b036005850154169260a0880193845260068501549589600760c08b019760018060a01b038a16895260e08c019960a01c8a5201549b8a826101008f9d019c168c52019b60401c168b526040519c8d525160208d01525160408c01525160608b01525160808a015260018060a01b0390511660a089015260018060a01b0390511660c0880152511660e086015251166101008401525116610120820152f35b63123e9aab60e21b5f5260045260245ffd5b5f80fd5b34610212575f366003190112610212576003546040516001600160a01b039091168152602090f35b346102125760c0366003190112610212576084356001600160a01b038116810361021257610282602091610270610743565b906064356044356024356004356107b8565b604051908152f35b346102125760203660031901126102125760206102a860043561078c565b90549060031b1c604051908152f35b34610212575f366003190112610212576020600254604051908152f35b34610212576020366003190112610212576102ed610759565b6003546001600160a01b0381169133839003610358576001600160a01b03169182156103495782907ff8ccb027dfcd135e000e9d45e6cc2d662578a8825d4c45b5e32e0adf67e79ec65f80a36001600160a01b03191617600355005b63d92e233d60e01b5f5260045ffd5b637bfa4b9f60e01b5f5260045ffd5b3461021257604036600319011261021257610380610759565b60243590811515809203610212576003546001600160a01b03163303610358576001600160a01b03169081156103495760207ff36785c4cc49b452cea097975e887a69971f39688674af50cb3b1cb7e18c348291835f526004825260405f2060ff1981541660ff8316179055604051908152a2005b34610212576020366003190112610212576001600160a01b03610416610759565b165f526004602052602060ff60405f2054166040519015158152f35b34610212576020366003190112610212576004355f526001602052602060ff60405f2054166040519015158152f35b34610212576101003660031901126102125760643560243560843560043560443561048a610743565b9360c435936001600160a01b0385168086036102125760e435966001600160601b03881680980361021257335f52600460205260ff60405f20541615610730578515610721578815610712576001600160a01b038116968715610703576104f4918a87878a6107b8565b96875f52600160205260ff60405f2054166106f057875f52600160205260405f20600160ff1982541617905560405161052c8161076f565b8681528867ffffffffffffffff600760208401938885528d604082018b8152606083019182528d608084018b815260a0850191825260c08501938b855260e08601938b855261010087019a8942168c5261012088019a8a43168c525f525f60205260405f209751885551600188015551600287015551600386015551600485015560018060a01b03905116600584019060018060a01b03166001600160601b0360a01b825416179055600683019160018060a01b039060018060a01b03905116166001600160601b0360a01b835416178255518154906001600160601b0360a01b9060a01b169060018060a01b0316179055019251166fffffffffffffffff00000000000000008354925160401b16916fffffffffffffffffffffffffffffffff19161717905560025492680100000000000000008410156106dc5760209989967f125149b7d95fd7630f059a419273a9274d049279bfb9fa461313839786463cc5966106a187600160c0990160025561078c565b81549060031b908b821b915f19901b19161790556040519586528c86015260408501526060840152608083015260a0820152a4604051908152f35b634e487b7160e01b5f52604160045260245ffd5b87634878f58160e11b5f5260045260245ffd5b63a26bef6960e01b5f5260045ffd5b63f6b72f0b60e01b5f5260045ffd5b6342b95c6560e11b5f5260045ffd5b6348d9097960e11b5f523360045260245ffd5b60a435906001600160a01b038216820361021257565b600435906001600160a01b038216820361021257565b610140810190811067ffffffffffffffff8211176106dc57604052565b6002548110156107a45760025f5260205f2001905f90565b634e487b7160e01b5f52603260045260245ffd5b9492909391604051946020860196875260408601526060850152608084015260018060a01b031660a083015260018060a01b031660c082015260c0815260e0810181811067ffffffffffffffff8211176106dc576040525190209056fea2646970667358221220e793de9cee8d01b4bc36425d6b30142dac60d59a874b680d5c7ace4ddd43996364736f6c634300081f0033","linkReferences":{}},"methodIdentifiers":{"admin()":"f851a440","computeReceiptId(bytes32,bytes32,bytes32,bytes32,address,address)":"cf0933f2","exists(bytes32)":"38a699a4","getReceipt(bytes32)":"fcecbb61","isRecorder(address)":"646ce049","receiptAt(uint256)":"8f18191b","receiptCount()":"7f038f3c","register(bytes32,bytes32,bytes32,bytes32,bytes32,address,address,uint96)":"0aa6e163","setRecorder(address,bool)":"6b39349f","transferAdmin(address)":"75829def"},"id":16}